{
  "_format": "hh-sol-artifact-1",
  "contractName": "PanaCoin",
  "sourceName": "contracts/governance/PanaCoin.sol",
  "abi": [
    {
      "inputs": [],
      "stateMutability": "nonpayable",
      "type": "constructor"
    },
    {
      "anonymous": false,
      "inputs": [
        {
          "indexed": true,
          "internalType": "address",
          "name": "owner",
          "type": "address"
        },
        {
          "indexed": true,
          "internalType": "address",
          "name": "spender",
          "type": "address"
        },
        {
          "indexed": false,
          "internalType": "uint256",
          "name": "value",
          "type": "uint256"
        }
      ],
      "name": "Approval",
      "type": "event"
    },
    {
      "anonymous": false,
      "inputs": [
        {
          "indexed": true,
          "internalType": "address",
          "name": "delegator",
          "type": "address"
        },
        {
          "indexed": true,
          "internalType": "address",
          "name": "fromDelegate",
          "type": "address"
        },
        {
          "indexed": true,
          "internalType": "address",
          "name": "toDelegate",
          "type": "address"
        }
      ],
      "name": "DelegateChanged",
      "type": "event"
    },
    {
      "anonymous": false,
      "inputs": [
        {
          "indexed": true,
          "internalType": "address",
          "name": "delegate",
          "type": "address"
        },
        {
          "indexed": false,
          "internalType": "uint256",
          "name": "previousBalance",
          "type": "uint256"
        },
        {
          "indexed": false,
          "internalType": "uint256",
          "name": "newBalance",
          "type": "uint256"
        }
      ],
      "name": "DelegateVotesChanged",
      "type": "event"
    },
    {
      "anonymous": false,
      "inputs": [
        {
          "indexed": true,
          "internalType": "address",
          "name": "from",
          "type": "address"
        },
        {
          "indexed": true,
          "internalType": "address",
          "name": "to",
          "type": "address"
        },
        {
          "indexed": false,
          "internalType": "uint256",
          "name": "value",
          "type": "uint256"
        }
      ],
      "name": "Transfer",
      "type": "event"
    },
    {
      "inputs": [],
      "name": "DELEGATION_TYPEHASH",
      "outputs": [
        {
          "internalType": "bytes32",
          "name": "",
          "type": "bytes32"
        }
      ],
      "stateMutability": "view",
      "type": "function"
    },
    {
      "inputs": [],
      "name": "DOMAIN_TYPEHASH",
      "outputs": [
        {
          "internalType": "bytes32",
          "name": "",
          "type": "bytes32"
        }
      ],
      "stateMutability": "view",
      "type": "function"
    },
    {
      "inputs": [
        {
          "internalType": "address",
          "name": "owner",
          "type": "address"
        },
        {
          "internalType": "address",
          "name": "spender",
          "type": "address"
        }
      ],
      "name": "allowance",
      "outputs": [
        {
          "internalType": "uint256",
          "name": "",
          "type": "uint256"
        }
      ],
      "stateMutability": "view",
      "type": "function"
    },
    {
      "inputs": [
        {
          "internalType": "address",
          "name": "spender",
          "type": "address"
        },
        {
          "internalType": "uint256",
          "name": "amount",
          "type": "uint256"
        }
      ],
      "name": "approve",
      "outputs": [
        {
          "internalType": "bool",
          "name": "",
          "type": "bool"
        }
      ],
      "stateMutability": "nonpayable",
      "type": "function"
    },
    {
      "inputs": [
        {
          "internalType": "address",
          "name": "account",
          "type": "address"
        }
      ],
      "name": "balanceOf",
      "outputs": [
        {
          "internalType": "uint256",
          "name": "",
          "type": "uint256"
        }
      ],
      "stateMutability": "view",
      "type": "function"
    },
    {
      "inputs": [
        {
          "internalType": "address",
          "name": "",
          "type": "address"
        },
        {
          "internalType": "uint32",
          "name": "",
          "type": "uint32"
        }
      ],
      "name": "checkpoints",
      "outputs": [
        {
          "internalType": "uint32",
          "name": "fromBlock",
          "type": "uint32"
        },
        {
          "internalType": "uint256",
          "name": "votes",
          "type": "uint256"
        }
      ],
      "stateMutability": "view",
      "type": "function"
    },
    {
      "inputs": [],
      "name": "decimals",
      "outputs": [
        {
          "internalType": "uint8",
          "name": "",
          "type": "uint8"
        }
      ],
      "stateMutability": "view",
      "type": "function"
    },
    {
      "inputs": [
        {
          "internalType": "address",
          "name": "spender",
          "type": "address"
        },
        {
          "internalType": "uint256",
          "name": "subtractedValue",
          "type": "uint256"
        }
      ],
      "name": "decreaseAllowance",
      "outputs": [
        {
          "internalType": "bool",
          "name": "",
          "type": "bool"
        }
      ],
      "stateMutability": "nonpayable",
      "type": "function"
    },
    {
      "inputs": [
        {
          "internalType": "address",
          "name": "delegatee",
          "type": "address"
        }
      ],
      "name": "delegate",
      "outputs": [],
      "stateMutability": "nonpayable",
      "type": "function"
    },
    {
      "inputs": [
        {
          "internalType": "address",
          "name": "delegatee",
          "type": "address"
        },
        {
          "internalType": "uint256",
          "name": "nonce",
          "type": "uint256"
        },
        {
          "internalType": "uint256",
          "name": "expiry",
          "type": "uint256"
        },
        {
          "internalType": "uint8",
          "name": "v",
          "type": "uint8"
        },
        {
          "internalType": "bytes32",
          "name": "r",
          "type": "bytes32"
        },
        {
          "internalType": "bytes32",
          "name": "s",
          "type": "bytes32"
        }
      ],
      "name": "delegateBySig",
      "outputs": [],
      "stateMutability": "nonpayable",
      "type": "function"
    },
    {
      "inputs": [
        {
          "internalType": "address",
          "name": "",
          "type": "address"
        }
      ],
      "name": "delegates",
      "outputs": [
        {
          "internalType": "address",
          "name": "",
          "type": "address"
        }
      ],
      "stateMutability": "view",
      "type": "function"
    },
    {
      "inputs": [
        {
          "internalType": "address",
          "name": "account",
          "type": "address"
        }
      ],
      "name": "getCurrentVotes",
      "outputs": [
        {
          "internalType": "uint256",
          "name": "",
          "type": "uint256"
        }
      ],
      "stateMutability": "view",
      "type": "function"
    },
    {
      "inputs": [
        {
          "internalType": "address",
          "name": "account",
          "type": "address"
        },
        {
          "internalType": "uint256",
          "name": "blockNumber",
          "type": "uint256"
        }
      ],
      "name": "getPriorVotes",
      "outputs": [
        {
          "internalType": "uint256",
          "name": "",
          "type": "uint256"
        }
      ],
      "stateMutability": "view",
      "type": "function"
    },
    {
      "inputs": [
        {
          "internalType": "address",
          "name": "spender",
          "type": "address"
        },
        {
          "internalType": "uint256",
          "name": "addedValue",
          "type": "uint256"
        }
      ],
      "name": "increaseAllowance",
      "outputs": [
        {
          "internalType": "bool",
          "name": "",
          "type": "bool"
        }
      ],
      "stateMutability": "nonpayable",
      "type": "function"
    },
    {
      "inputs": [],
      "name": "maxSupply",
      "outputs": [
        {
          "internalType": "uint256",
          "name": "",
          "type": "uint256"
        }
      ],
      "stateMutability": "view",
      "type": "function"
    },
    {
      "inputs": [
        {
          "internalType": "address",
          "name": "to",
          "type": "address"
        },
        {
          "internalType": "uint256",
          "name": "amount",
          "type": "uint256"
        }
      ],
      "name": "mint",
      "outputs": [],
      "stateMutability": "nonpayable",
      "type": "function"
    },
    {
      "inputs": [],
      "name": "name",
      "outputs": [
        {
          "internalType": "string",
          "name": "",
          "type": "string"
        }
      ],
      "stateMutability": "view",
      "type": "function"
    },
    {
      "inputs": [
        {
          "internalType": "address",
          "name": "",
          "type": "address"
        }
      ],
      "name": "numCheckpoints",
      "outputs": [
        {
          "internalType": "uint32",
          "name": "",
          "type": "uint32"
        }
      ],
      "stateMutability": "view",
      "type": "function"
    },
    {
      "inputs": [],
      "name": "owner",
      "outputs": [
        {
          "internalType": "address",
          "name": "",
          "type": "address"
        }
      ],
      "stateMutability": "view",
      "type": "function"
    },
    {
      "inputs": [],
      "name": "symbol",
      "outputs": [
        {
          "internalType": "string",
          "name": "",
          "type": "string"
        }
      ],
      "stateMutability": "view",
      "type": "function"
    },
    {
      "inputs": [],
      "name": "totalSupply",
      "outputs": [
        {
          "internalType": "uint256",
          "name": "",
          "type": "uint256"
        }
      ],
      "stateMutability": "view",
      "type": "function"
    },
    {
      "inputs": [
        {
          "internalType": "address",
          "name": "recipient",
          "type": "address"
        },
        {
          "internalType": "uint256",
          "name": "amount",
          "type": "uint256"
        }
      ],
      "name": "transfer",
      "outputs": [
        {
          "internalType": "bool",
          "name": "",
          "type": "bool"
        }
      ],
      "stateMutability": "nonpayable",
      "type": "function"
    },
    {
      "inputs": [
        {
          "internalType": "address",
          "name": "sender",
          "type": "address"
        },
        {
          "internalType": "address",
          "name": "recipient",
          "type": "address"
        },
        {
          "internalType": "uint256",
          "name": "amount",
          "type": "uint256"
        }
      ],
      "name": "transferFrom",
      "outputs": [
        {
          "internalType": "bool",
          "name": "",
          "type": "bool"
        }
      ],
      "stateMutability": "nonpayable",
      "type": "function"
    }
  ],
  "bytecode": "0x6080604052620000126012600a620006ee565b6200002290633b9aca00620007ba565b6006553480156200003257600080fd5b50604051806040016040528060088152602001672830b730a1b7b4b760c11b8152506040518060400160405280600381526020016250434560e81b81525081600390805190602001906200008892919062000563565b5080516200009e90600490602084019062000563565b5050600580546001600160a01b03191633908117909155620000e69150620000c4601290565b620000d190600a620006ee565b620000e09062989680620007ba565b620000ec565b62000871565b6001600160a01b038216620001485760405162461bcd60e51b815260206004820152601f60248201527f45524332303a206d696e7420746f20746865207a65726f20616464726573730060448201526064015b60405180910390fd5b80600260008282546200015c91906200065f565b90915550506001600160a01b038216600090815260208190526040812080548392906200018b9084906200065f565b90915550506040518181526001600160a01b038316906000907fddf252ad1be2c89b69c2b068fc378daa952ba7f163c4a11628f55a4df523b3ef9060200160405180910390a3620001df60008383620001e8565b5050565b505050565b6001600160a01b03838116600090815260086020526040808220548584168352912054620001e392918216911683818314801590620002275750600081115b15620001e3576001600160a01b03831615620002d4576001600160a01b0383166000908152600a602052604081205463ffffffff1690816200026b576000620002b0565b6001600160a01b03851660009081526009602052604081209062000291600185620007f6565b63ffffffff1663ffffffff168152602001908152602001600020600101545b90506000620002c08483620007dc565b9050620002d0868484846200037f565b5050505b6001600160a01b03821615620001e3576001600160a01b0382166000908152600a602052604081205463ffffffff1690816200031257600062000357565b6001600160a01b03841660009081526009602052604081209062000338600185620007f6565b63ffffffff1663ffffffff168152602001908152602001600020600101545b905060006200036784836200065f565b905062000377858484846200037f565b505050505050565b6000620003a643604051806060016040528060388152602001620021dd603891396200052d565b905060008463ffffffff161180156200040357506001600160a01b038516600090815260096020526040812063ffffffff831691620003e7600188620007f6565b63ffffffff908116825260208201929092526040016000205416145b1562000450576001600160a01b0385166000908152600960205260408120839162000430600188620007f6565b63ffffffff168152602081019190915260400160002060010155620004e2565b60408051808201825263ffffffff838116825260208083018681526001600160a01b038a166000908152600983528581208a851682529092529390209151825463ffffffff191691161781559051600191820155620004b19085906200067a565b6001600160a01b0386166000908152600a60205260409020805463ffffffff191663ffffffff929092169190911790555b60408051848152602081018490526001600160a01b038716917fdec2bacdd2f05b59de34da9b523dff8be42e5e38e818c82fdb0bae774387a724910160405180910390a25050505050565b6000816401000000008410620005585760405162461bcd60e51b81526004016200013f919062000609565b508290505b92915050565b82805462000571906200081e565b90600052602060002090601f016020900481019282620005955760008555620005e0565b82601f10620005b057805160ff1916838001178555620005e0565b82800160010185558215620005e0579182015b82811115620005e0578251825591602001919060010190620005c3565b50620005ee929150620005f2565b5090565b5b80821115620005ee5760008155600101620005f3565b6000602080835283518082850152825b81811015620006375785810183015185820160400152820162000619565b81811115620006495783604083870101525b50601f01601f1916929092016040019392505050565b600082198211156200067557620006756200085b565b500190565b600063ffffffff8083168185168083038211156200069c576200069c6200085b565b01949350505050565b600181815b80851115620006e6578160001904821115620006ca57620006ca6200085b565b80851615620006d857918102915b93841c9390800290620006aa565b509250929050565b6000620006ff60ff84168362000706565b9392505050565b60008262000717575060016200055d565b8162000726575060006200055d565b81600181146200073f57600281146200074a576200076a565b60019150506200055d565b60ff8411156200075e576200075e6200085b565b50506001821b6200055d565b5060208310610133831016604e8410600b84101617156200078f575081810a6200055d565b6200079b8383620006a5565b8060001904821115620007b257620007b26200085b565b029392505050565b6000816000190483118215151615620007d757620007d76200085b565b500290565b600082821015620007f157620007f16200085b565b500390565b600063ffffffff838116908316818110156200081657620008166200085b565b039392505050565b600181811c908216806200083357607f821691505b602082108114156200085557634e487b7160e01b600052602260045260246000fd5b50919050565b634e487b7160e01b600052601160045260246000fd5b61195c80620008816000396000f3fe608060405234801561001057600080fd5b506004361061018d5760003560e01c806370a08231116100e3578063b4b5ea571161008c578063dd62ed3e11610066578063dd62ed3e1461038f578063e7a324dc146103c8578063f1127ed8146103ef57600080fd5b8063b4b5ea5714610360578063c3cda52014610373578063d5abeb011461038657600080fd5b806395d89b41116100bd57806395d89b4114610332578063a457c2d71461033a578063a9059cbb1461034d57600080fd5b806370a08231146102e5578063782d6fe11461030e5780638da5cb5b1461032157600080fd5b8063313ce56711610145578063587cde1e1161011f578063587cde1e146102565780635c19a95c146102975780636fcfff45146102aa57600080fd5b8063313ce5671461021f578063395093511461022e57806340c10f191461024157600080fd5b806318160ddd1161017657806318160ddd146101d357806320606b70146101e557806323b872dd1461020c57600080fd5b806306fdde0314610192578063095ea7b3146101b0575b600080fd5b61019a610446565b6040516101a791906117ad565b60405180910390f35b6101c36101be3660046116e8565b6104d8565b60405190151581526020016101a7565b6002545b6040519081526020016101a7565b6101d77f8cad95687ba82c2ce50e74f7b754645e5117c3a5bec8151c0726d5857980a86681565b6101c361021a3660046116ad565b6104ef565b604051601281526020016101a7565b6101c361023c3660046116e8565b6105b3565b61025461024f3660046116e8565b6105ef565b005b61027f610264366004611661565b6008602052600090815260409020546001600160a01b031681565b6040516001600160a01b0390911681526020016101a7565b6102546102a5366004611661565b6106f6565b6102d06102b8366004611661565b600a6020526000908152604090205463ffffffff1681565b60405163ffffffff90911681526020016101a7565b6101d76102f3366004611661565b6001600160a01b031660009081526020819052604090205490565b6101d761031c3660046116e8565b610703565b6005546001600160a01b031661027f565b61019a61097e565b6101c36103483660046116e8565b61098d565b6101c361035b3660046116e8565b610a3e565b6101d761036e366004611661565b610a4b565b610254610381366004611711565b610ac0565b6101d760065481565b6101d761039d36600461167b565b6001600160a01b03918216600090815260016020908152604080832093909416825291909152205490565b6101d77fe48329057bfd03d55e49b547132e39cffd9c1820ad7b9d4c5307691425d15adf81565b61042a6103fd36600461176f565b60096020908152600092835260408084209091529082529020805460019091015463ffffffff9091169082565b6040805163ffffffff90931683526020830191909152016101a7565b606060038054610455906118ab565b80601f0160208091040260200160405190810160405280929190818152602001828054610481906118ab565b80156104ce5780601f106104a3576101008083540402835291602001916104ce565b820191906000526020600020905b8154815290600101906020018083116104b157829003601f168201915b5050505050905090565b60006104e5338484610df2565b5060015b92915050565b60006104fc848484610f4a565b6001600160a01b03841660009081526001602090815260408083203384529091529020548281101561059b5760405162461bcd60e51b815260206004820152602860248201527f45524332303a207472616e7366657220616d6f756e742065786365656473206160448201527f6c6c6f77616e636500000000000000000000000000000000000000000000000060648201526084015b60405180910390fd5b6105a88533858403610df2565b506001949350505050565b3360008181526001602090815260408083206001600160a01b038716845290915281205490916104e59185906105ea908690611800565b610df2565b6005546001600160a01b0316331461066f5760405162461bcd60e51b815260206004820152602160248201527f50616e61436f696e3a2063616c6c6572206973206e6f7420746865206f776e6560448201527f72000000000000000000000000000000000000000000000000000000000000006064820152608401610592565b600654600254106106e85760405162461bcd60e51b815260206004820152602f60248201527f50616e61436f696e3a20546f74616c20537570706c792063616e6e6f7420657860448201527f636565642031302062696c6c696f6e00000000000000000000000000000000006064820152608401610592565b6106f2828261116d565b5050565b6107003382611254565b50565b600043821061077a5760405162461bcd60e51b815260206004820152602b60248201527f50616e61436f696e3a3a6765745072696f72566f7465733a206e6f742079657460448201527f2064657465726d696e65640000000000000000000000000000000000000000006064820152608401610592565b6001600160a01b0383166000908152600a602052604090205463ffffffff16806107a85760009150506104e9565b6001600160a01b038416600090815260096020526040812084916107cd600185611886565b63ffffffff90811682526020820192909252604001600020541611610836576001600160a01b038416600090815260096020526040812090610810600184611886565b63ffffffff1663ffffffff168152602001908152602001600020600101549150506104e9565b6001600160a01b038416600090815260096020908152604080832083805290915290205463ffffffff168310156108715760009150506104e9565b60008061087f600184611886565b90505b8163ffffffff168163ffffffff16111561094757600060026108a48484611886565b6108ae9190611840565b6108b89083611886565b6001600160a01b038816600090815260096020908152604080832063ffffffff808616855290835292819020815180830190925280549093168082526001909301549181019190915291925087141561091b576020015194506104e99350505050565b805163ffffffff1687111561093257819350610940565b61093d600183611886565b92505b5050610882565b506001600160a01b038516600090815260096020908152604080832063ffffffff9094168352929052206001015491505092915050565b606060048054610455906118ab565b3360009081526001602090815260408083206001600160a01b038616845290915281205482811015610a275760405162461bcd60e51b815260206004820152602560248201527f45524332303a2064656372656173656420616c6c6f77616e63652062656c6f7760448201527f207a65726f0000000000000000000000000000000000000000000000000000006064820152608401610592565b610a343385858403610df2565b5060019392505050565b60006104e5338484610f4a565b6001600160a01b0381166000908152600a602052604081205463ffffffff1680610a76576000610ab9565b6001600160a01b038316600090815260096020526040812090610a9a600184611886565b63ffffffff1663ffffffff168152602001908152602001600020600101545b9392505050565b60007f8cad95687ba82c2ce50e74f7b754645e5117c3a5bec8151c0726d5857980a866610aeb610446565b80519060200120610af94690565b60408051602080820195909552808201939093526060830191909152306080808401919091528151808403909101815260a0830182528051908401207fe48329057bfd03d55e49b547132e39cffd9c1820ad7b9d4c5307691425d15adf60c08401526001600160a01b038b1660e084015261010083018a90526101208084018a9052825180850390910181526101408401909252815191909301207f1901000000000000000000000000000000000000000000000000000000000000610160830152610162820183905261018282018190529192506000906101a20160408051601f198184030181528282528051602091820120600080855291840180845281905260ff8a169284019290925260608301889052608083018790529092509060019060a0016020604051602081039080840390855afa158015610c40573d6000803e3d6000fd5b5050604051601f1901519150506001600160a01b038116610cc95760405162461bcd60e51b815260206004820152602a60248201527f50616e61436f696e3a3a64656c656761746542795369673a20696e76616c696460448201527f207369676e6174757265000000000000000000000000000000000000000000006064820152608401610592565b6001600160a01b0381166000908152600760205260408120805491610ced836118e6565b919050558914610d655760405162461bcd60e51b815260206004820152602660248201527f50616e61436f696e3a3a64656c656761746542795369673a20696e76616c696460448201527f206e6f6e636500000000000000000000000000000000000000000000000000006064820152608401610592565b87421115610ddb5760405162461bcd60e51b815260206004820152602a60248201527f50616e61436f696e3a3a64656c656761746542795369673a207369676e61747560448201527f72652065787069726564000000000000000000000000000000000000000000006064820152608401610592565b610de5818b611254565b505050505b505050505050565b6001600160a01b038316610e6d5760405162461bcd60e51b8152602060048201526024808201527f45524332303a20617070726f76652066726f6d20746865207a65726f2061646460448201527f72657373000000000000000000000000000000000000000000000000000000006064820152608401610592565b6001600160a01b038216610ee95760405162461bcd60e51b815260206004820152602260248201527f45524332303a20617070726f766520746f20746865207a65726f20616464726560448201527f73730000000000000000000000000000000000000000000000000000000000006064820152608401610592565b6001600160a01b0383811660008181526001602090815260408083209487168084529482529182902085905590518481527f8c5be1e5ebec7d5bd14f71427d1e84f3dd0314c0f7b2291e5b200ac8c7c3b925910160405180910390a3505050565b6001600160a01b038316610fc65760405162461bcd60e51b815260206004820152602560248201527f45524332303a207472616e736665722066726f6d20746865207a65726f20616460448201527f64726573730000000000000000000000000000000000000000000000000000006064820152608401610592565b6001600160a01b0382166110425760405162461bcd60e51b815260206004820152602360248201527f45524332303a207472616e7366657220746f20746865207a65726f206164647260448201527f65737300000000000000000000000000000000000000000000000000000000006064820152608401610592565b6001600160a01b038316600090815260208190526040902054818110156110d15760405162461bcd60e51b815260206004820152602660248201527f45524332303a207472616e7366657220616d6f756e742065786365656473206260448201527f616c616e636500000000000000000000000000000000000000000000000000006064820152608401610592565b6001600160a01b03808516600090815260208190526040808220858503905591851681529081208054849290611108908490611800565b92505081905550826001600160a01b0316846001600160a01b03167fddf252ad1be2c89b69c2b068fc378daa952ba7f163c4a11628f55a4df523b3ef8460405161115491815260200190565b60405180910390a36111678484846112ea565b50505050565b6001600160a01b0382166111c35760405162461bcd60e51b815260206004820152601f60248201527f45524332303a206d696e7420746f20746865207a65726f2061646472657373006044820152606401610592565b80600260008282546111d59190611800565b90915550506001600160a01b03821660009081526020819052604081208054839290611202908490611800565b90915550506040518181526001600160a01b038316906000907fddf252ad1be2c89b69c2b068fc378daa952ba7f163c4a11628f55a4df523b3ef9060200160405180910390a36106f2600083836112ea565b6001600160a01b038281166000818152600860208181526040808420805485845282862054949093528787167fffffffffffffffffffffffff00000000000000000000000000000000000000008416811790915590519190951694919391928592917f3134e8a2e6d97e929a7e54011ea5485d7d196dd5f0ba4d4ef95803e8e3fc257f9190a4611167828483611318565b505050565b6001600160a01b038084166000908152600860205260408082205485841683529120546112e5929182169116835b816001600160a01b0316836001600160a01b03161415801561133a5750600081115b156112e5576001600160a01b038316156113dd576001600160a01b0383166000908152600a602052604081205463ffffffff16908161137a5760006113bd565b6001600160a01b03851660009081526009602052604081209061139e600185611886565b63ffffffff1663ffffffff168152602001908152602001600020600101545b905060006113cb848361186f565b90506113d986848484611473565b5050505b6001600160a01b038216156112e5576001600160a01b0382166000908152600a602052604081205463ffffffff16908161141857600061145b565b6001600160a01b03841660009081526009602052604081209061143c600185611886565b63ffffffff1663ffffffff168152602001908152602001600020600101545b905060006114698483611800565b9050610dea858484845b60006114974360405180606001604052806038815260200161191860389139611615565b905060008463ffffffff161180156114f157506001600160a01b038516600090815260096020526040812063ffffffff8316916114d5600188611886565b63ffffffff908116825260208201929092526040016000205416145b1561153a576001600160a01b0385166000908152600960205260408120839161151b600188611886565b63ffffffff1681526020810191909152604001600020600101556115ca565b60408051808201825263ffffffff838116825260208083018681526001600160a01b038a166000908152600983528581208a851682529092529390209151825463ffffffff191691161781559051600191820155611599908590611818565b6001600160a01b0386166000908152600a60205260409020805463ffffffff191663ffffffff929092169190911790555b60408051848152602081018490526001600160a01b038716917fdec2bacdd2f05b59de34da9b523dff8be42e5e38e818c82fdb0bae774387a724910160405180910390a25050505050565b600081640100000000841061163d5760405162461bcd60e51b815260040161059291906117ad565b509192915050565b80356001600160a01b038116811461165c57600080fd5b919050565b600060208284031215611672578081fd5b610ab982611645565b6000806040838503121561168d578081fd5b61169683611645565b91506116a460208401611645565b90509250929050565b6000806000606084860312156116c1578081fd5b6116ca84611645565b92506116d860208501611645565b9150604084013590509250925092565b600080604083850312156116fa578182fd5b61170383611645565b946020939093013593505050565b60008060008060008060c08789031215611729578182fd5b61173287611645565b95506020870135945060408701359350606087013560ff81168114611755578283fd5b9598949750929560808101359460a0909101359350915050565b60008060408385031215611781578182fd5b61178a83611645565b9150602083013563ffffffff811681146117a2578182fd5b809150509250929050565b6000602080835283518082850152825b818110156117d9578581018301518582016040015282016117bd565b818111156117ea5783604083870101525b50601f01601f1916929092016040019392505050565b6000821982111561181357611813611901565b500190565b600063ffffffff80831681851680830382111561183757611837611901565b01949350505050565b600063ffffffff8084168061186357634e487b7160e01b83526012600452602483fd5b92169190910492915050565b60008282101561188157611881611901565b500390565b600063ffffffff838116908316818110156118a3576118a3611901565b039392505050565b600181811c908216806118bf57607f821691505b602082108114156118e057634e487b7160e01b600052602260045260246000fd5b50919050565b60006000198214156118fa576118fa611901565b5060010190565b634e487b7160e01b600052601160045260246000fdfe50616e61436f696e3a3a5f7772697465436865636b706f696e743a20626c6f636b206e756d62657220657863656564732033322062697473a164736f6c6343000804000a50616e61436f696e3a3a5f7772697465436865636b706f696e743a20626c6f636b206e756d62657220657863656564732033322062697473",
  "linkReferences": {},
  "deployedLinkReferences": {}
}